:1000000023C03DC03CC03BC03AC039C038C037C037
:1000100036C035C034C061C032C031C030C02FC01E
:100020002EC02DC02CC02BC02AC029C028C027C07C
:1000300026C025C024C023C022C021C001020480E4
:10004000402010080402010811241FBECFEFD2E0A7
:10005000DEBFCDBF11E0A0E0B1E0EEEFF2E002C004
:1000600005900D92A230B107D9F721E0A2E0B1E0EE
:1000700001C01D92AB30B207E1F73BD13EC1C0CF0A
:1000800060E083E0F0D0B89A0895C09864E670E02C
:1000900080E090E093D08091000190910101019760
:1000A00059F4C09A68EC70E080E090E087D0C09886
:1000B0001092010110920001C09808958EB5887FBA
:1000C0008EBD8FB58C7F81608FBD8EB5877E8EBDD6
:1000D0008EB5887F83608EBD08951F920F920FB6F4
:1000E0000F9211242F933F938F939F93AF93BF93BE
:1000F0008091030190910401A0910501B091060146
:100100003091020126E0230F2D3730F029E8230F2C
:100110000396A11DB11D03C00296A11DB11D209320
:1001200002018093030190930401A0930501B09311
:1001300006018091070190910801A0910901B091F9
:100140000A010196A11DB11D80930701909308013A
:10015000A0930901B0930A01BF91AF919F918F9134
:100160003F912F910F900FBE0F901F9018953FB7A2
:10017000F8948091070190910801A0910901B09134
:100180000A0122B708B600FE05C02F3F19F00196FC
:10019000A11DB11D3FBFBA2FA92F982F8827820F0D
:1001A000911DA11DB11DBC01CD0143E0660F771F5C
:1001B000881F991F4A95D1F708950895CF92DF922D
:1001C000EF92FF92CF93DF936B017C01D0DFEB01C5
:1001D000C114D104E104F10479F0EFDFC8DF6C1B36
:1001E0007D0B683E7340A0F381E0C81AD108E10896
:1001F000F108C851DC4FF2CFDF91CF91FF90EF9023
:10020000DF90CF900895789480B7836080BF83B7E4
:10021000877F83BF83B7887F836083BF89B781600F
:1002200089BF4CDFE9ECF0E08081887F808380E14A
:100230008093670084EA809368008CEF8093660067
:10024000AAECB0E08C918C7F81608C938081877E5A
:1002500080838081887F8360808385B1887F86608A
:1002600085B92F9A0895CF93DF9386FF04C08F73CB
:100270009BE0981B892FE82FF0E0E45CFF4F9491FE
:100280008B3049F0833038F0EBE3F0E0AAE3B0E0E4
:10029000C3E6D0E006C0E8E3F0E0A7E3B0E0C2E6E2
:1002A000D0E0892F80952FB761110BC0F8949C91F5
:1002B00098239C93908198239083988189238883A5
:1002C00014C0623059F4F8943C9183238C9380815C
:1002D000892B8083E881E92BE88307C0F894388173
:1002E00083238883EC91E92BEC932FBFDF91CF918F
:0E02F000089589DFC5DEC9DEFECFF894FFCF8A
:0202FE000100FD
:00000001FF
